A00012288205893631000109032484GUAJARA-MIRIM                                RO1100106
A00020000084744994000140101893ALTO ALEGRE DOS PARECIS                      RO1100379
A00033071905903125000145062910PORTO VELHO                                  RO1100205
A00080000084736941000188092835CUJUBIM                                      RO1100940
A00133440904092706000181087653VILHENA                                      RO1100304
A00154125804279238000159041440JARU                                         RO1100114
A00160000084723030000116092797PRIMAVERA DE RONDONIA                        RO1101476
A00174129604380507000179055077OURO PRETO DO OESTE                          RO1100155
A00200000001254422000156103659SAO FRANCISCO DO GUAPORE                     RO1101492
A00220000084722933000182103900TEIXEIROPOLIS                                RO1101559
A00234121004391512000187021822COLORADO DO OESTE                            RO1100064
A00315018437622149000112015580CALDAZINHA                                   GO5204557
A00320000001613028000167102741IRACEMA                                      RR1400282
A00354302915845340000190003751ALVORADA D'OESTE                             RO1100346
A00360000001613031000180103462RORAINOPOLIS                                 RR1400472
A00374462622855159000120091243CABIXI                                       RO1100031
A00394454722855142000173090638MACHADINHO D'OESTE                           RO1100130
A00445657301614112000103010766BELTERRA                                     PA1501451
A00485135801613321000124102288CANAA DOS CARAJAS                            PA1502152
A00495050037623501000134041777JESUPOLIS                                    GO5212055
A00525128601613338000181102601FLORESTA DO ARAGUAIA                         PA1503044
A00534498737623485000180100684SANTO ANTONIO DE GOIAS                       GO5219738
A00565130301612215000126103071NOVA IPIXUNA                                 PA1504976
A00595013937622164000160100820UIRAPURU                                     GO5221577
A00605131001611858000155103330PLACAS                                       PA1505650
A00615014624856569000111099392BURITINOPOLIS                                GO5203962
A00635058626867770000120099376BURITI DE GOIAS                              GO5203939
A00644594801613320000180074250SAO JOAO DA PONTA                            PA1507466
A00685133401612999000192083372TRACUATEUA                                   PA1508035
A00705648700720553000119104035VITORIA DO JARI                              AP1600808
A00715053124859316000100005240APARECIDA DO RIO DOCE                        GO5201454
A00720000001634074000142101885AGUIARNOPOLIS                                TO1700301
A00755019124859324000148059277PEROLANDIA                                   GO5216452
A00775054836862621000121098817CIDADE OCIDENTAL                             GO5205497
A00780000001625984000169102393CHAPADA DE AREIA                             TO1704600
A00820000001612821000141102474CRIXAS DO TOCANTINS                          TO1706258
A00855056233331604000170099236ALTO HORIZONTE                               GO5200555
A00860000001618402000117102911LAVANDEIRA                                   TO1712157
A00874390233331661000159100153NOVA IGUACU DE GOIAS                         GO5214879
A00900000001613093000192050555MONTE SANTO DO TOCANTINS                     TO1713700
A00935148237464948000108076597SAO PEDRO DA CIPA                            MT5107404
A00940000001615883000107103411PUGMIL                                       TO1718451
A00955149933000670000167100374PONTAL DO ARAGUAIA                           MT5106653
A00975157837465002000166098795QUERENCIA                                    MT5107065
A00980000001634030000112103543SANTA TEREZINHA DO TOCANTINS                 TO1720002
A00995152315943434000100065960RIBEIRAOZINHO                                MT5107198
A01020000001613619000134084379TUPIRAMA                                     TO1721257
A01040000001612339000101091782AGUA DOCE DO MARANHAO                        MA2100154
A01053569704508933000145013293BRASILEIA                                    AC1200104
A01073568004012548000102024503CRUZEIRO DO SUL                              AC1200203
A01080000001612832000121091804ALTO ALEGRE DO PINDARE                       MA2100477
A01155151637464161000146071293SANTO AFONSO                                 MT5107263
A01160000001611396000176101990BACABEIRA                                    MA2101251
A01175145133683822000173100102NOVA BANDEIRANTES                            MT5106158
A01195155437465556000163100200NOVA MONTE VERDE                             MT5108956
A01205695101612545000111102091BELAGUA                                      MA2101731
A01240000001612345000169102113BERNARDO DO MEARIM                           MA2101939
A01275156137465143000189099210ALTO BOA VISTA                               MT5100359
A01280000001612668000152091847BOM JESUS DAS SELVAS                         MA2102036
A01315150937464716000150099562CONFRESA                                     MT5103353
A01320000001612318000196091898BREJO DE AREIA                               MA2102150
A01355153037464955000100099740GLORIA D'OESTE                               MT5103957
A01365677901601303000122014052BURITIRANA                                   MA2102358
A01393895504034583000122066311RIO BRANCO                                   AC1200401
A01405685801598550000117091952CAMPESTRE DO MARANHAO                        MA2102556
A01435074437212719000104100099NOVA ALVORADA DO SUL                         MS5006002
A01440000001612342000125091979CENTRAL DO MARANHAO                          MA2103125
A01472747834693564000179081906TARAUACA                                     AC1200609
A01480000001612323000107091987CENTRO NOVO DO MARANHAO                      MA2103174
A01533373004077251000125078590SENADOR GUIOMARD                             AC1200450
A01540000001616269000160102520DAVINOPOLIS                                  MA2103752
A01550518404051207000146046736MANOEL URBANO                                AC1200344
A01570946504045993000179007323ASSIS BRASIL                                 AC1200054
A01585679301612667000108102598FERNANDO FALCAO                              MA2104081
A01620000001597627000134102679GOVERNADOR EDISON LOBAO                      MA2104552
A01634922901989813000119043958LAGUNA CARAPA                                MS5005251
A01660000001615124000144102695GOVERNADOR NEWTON BELLO                      MA2104651
A01700000001612346000103092053IGARAPE DO MEIO                              MA2105153
A01710000025064064000187014745CACHOEIRINHA                                 TO1703826
A01720000001612546000166102750ITAIPAVA DO GRAJAU                           MA2105351
A01760000001616678000166102776JATOBA                                       MA2105450
A01800000001612334000189092096JUNCO DO MARANHAO                            MA2105658
A01830000025064015000144100030MAURILANDIA DO TOCANTINS                     TO1712801
A01845690601612541000133043451LAGO DOS RODRIGUES                           MA2105948
A01910000025063991000182100340PAU D'ARCO                                   TO1716307
A01925687201555070000179092177MARAJA DO SENA                               MA2106359
A01950000025063918000100100625SANTA FE DO ARAGUAIA                         TO1718865
A01960000001612831000187092215MATOES DO NORTE                              MA2106631
A02005697501608768000105092231NOVA COLINAS                                 MA2107258
A02033925304262762000117004812ANORI                                        AM1300102
A02040000001612629000155092274OLINDA NOVA DO MARANHAO                      MA2107456
A02050953704530713000118007420ATALAIA DO NORTE                             AM1300201
A02071836004477642000137007676AUTAZES                                      AM1300300
A02080000001614946000100103250PEDRO DO ROSARIO                             MA2108256
A02092343404271037000105008940BARCELOS                                     AM1300409
A02120000001612542000188103390PORTO RICO DO MARANHAO                       MA2109056
A02130566504243978000135010863BENJAMIN CONSTANT                            AM1300607
A02160000001613745000199103403PRESIDENTE SARNEY                            MA2109270
A02172155304477568000159012904BORBA                                        AM1300805
A02205696801598547000101103438RIBAMAR FIQUENE                              MA2109551
A02213681604530044000184018570CARAUARI                                     AM1301001
A02240000001612830000132092363SANTANA DO MARANHAO                          MA2110237
A02251716504262432000121021407COARI                                        AM1301209
A02293437504190765000192026921EIRUNEPE                                     AM1301407
A02300000001616680000135092355SAO FRANCISCO DO BREJAO                      MA2110856
A02331297104530101000125029920FONTE BOA                                    AM1301605
A02340000001597629000123092401SAO JOAO DO PARAISO                          MA2111052
A02370687704194239000109069574SANTA ISABEL DO RIO NEGRO                    AM1303601
A02385691301616769000100092428SAO JOSE DOS BASILIOS                        MA2111250
A02400000001613956000121091774SAO PEDRO DA AGUA BRANCA                     MA2111532
A02440000001611836000195092444SAO RAIMUNDO DO DOCA BEZERRA                 MA2111631
A02452419604505509000147041165JAPURA                                       AM1302108
A02480000001611895000163092460SATUBINHA                                    MA2111722
A02490675004285896000153043214JUTAI                                        AM1302306
A02525432401598970000101092150SENADOR LA ROCQUE                            MA2111763
A02531986404274064000131046361MANACAPURU                                   AM1302504
A02565699901612338000167092487SUCUPIRA DO RIACHAO                          MA2111953
A02571859704197166000109046604MANICORE                                     AM1302702
A02600000001612631000124092495TUFILANDIA                                   MA2112274
A02613658604282869000127048550MAUES                                        AM1302900
A02651711004477600000104053511NOVA OLINDA DO NORTE                         AM1303106
A02684761601612562000159101915ALVORADA DO GURGUEIA                         PI2200459
A02693221204329736000169057150PARINTINS                                    AM1303403
A02720000001612565000192102040BARRA D'ALCANTARA                            PI2201176
A02731013104532057000192071773SANTO ANTONIO DO ICA                         AM1303700
A02752791105829577000124076384SAO PAULO DE OLIVENCA                        AM1303908
A02760000001612560000160102105BELEM DO PIAUI                               PI2201572
A02784709401612622000133102121BETANIA DO PIAUI                             PI2201739
A02790716804530390000162081469TAPAUA                                       AM1304104
A02820000001612566000137102164BOQUEIRAO DO PIAUI                           PI2201945
A02851776304477782000105085286URUCARA                                      AM1304302
A02865503101612573000139102229CAJAZEIRAS DO PIAUI                          PI2202075
A02894183204628335000100003620ALVARAES                                     AM1300029
A02905504801612564000148102253CAMPO ALEGRE DO FIDALGO                      PI2202117
A02934194204628020000162004308ANAMA                                        AM1300086
A02945506201612754000165102270CAMPO LARGO DO PIAUI                         PI2202174
A02954188704628111000106011045BERURI                                       AM1300631
A02974199704629283000196011665BOA VISTA DO RAMOS                           AM1300680
A02985508601612617000120102318CARAUBAS DO PIAUI                            PI2202539
A03013529505943030000155011509BOA VISTA                                    RR1400100
A03025509301612618000175102377CAXINGO                                      PI2202653
A03070000004056214000130012610BONFIM                                       RR1400159
A03110000004056222000187052477NORMANDIA                                    RR1400407
A03120000001612556000100102504CURRAL NOVO DO PIAUI                         PI2203271
A03150000004056230000123075809SAO LUIZ                                     RR1400605
A03170000026753129000164048259MATEIROS                                     TO1712702
A03185515801499149000120102660GEMINIANO                                    PI2204352
A03200000001612576000172102717GUARIBAS                                     PI2204550
A03230000033262536000134066443RIO DA CONCEICAO                             TO1718659
A03245516501612557000146102792JATOBA DO PIAUI                              PI2205276
A03274672737344397000149018830CARIRI DO TOCANTINS                          TO1703867
A03285518901612677000143102830JOCA MARQUES                                 PI2205458
A03325519601612619000110102857JULIO BORGES                                 PI2205524
A03385590701612584000119102873LAGOA DE SAO FRANCISCO                       PI2205573
A03410000037420775000126012297BOM JESUS DO TOCANTINS                       TO1703305
A03450000037421112000126099724FORTALEZA DO TABOCAO                         TO1708254
A03485525101612590000176102997MILTON BRANDAO                               PI2206357
A03510000037420650000104099929LAJEADO                                      TO1712009
A03525527501612593000100103012MORRO DO CHAPEU DO PIAUI                     PI2206670
A03550000025063942000140060925PIRAQUE                                      TO1717206
A03565529901612592000165103055NOSSA SENHORA DE NAZARE                      PI2206753
A03630000026753145000157100498SAO FELIX DO TOCANTINS                       TO1720150
A03645532301612601000118103225PAQUETA                                      PI2207553
A03650000037420692000137084395TUPIRATINS                                   TO1721307
A03674666226753137000100099902LAGOA DA CONFUSAO                            TO1711902
A03685533001612600000173103268PEDRO LAURENTINO                             PI2207934
A03695113883334698000109100617SANTA BARBARA DO PARA                        PA1506351
A03705534701612599000187103284NOVA SANTA RITA                              PI2207959
A03744756801612606000140103420RIACHO FRIO                                  PI2208858
A03750000083211375000128099163ABEL FIGUEIREDO                              PA1500131
A03785537801612603000107103578SANTO ANTONIO DOS MILAGRES                   PI2209450
A03815122483211391000110100471SAO DOMINGOS DO ARAGUAIA                     PA1507151
A03824758201612607000195103667SAO GONCALO DO GURGUEIA                      PI2209757
A03835115234671057000134099198AGUA AZUL DO NORTE                           PA1500347
A03855126234670976000193099600CUMARU DO NORTE                              PA1502764
A03895137283267989000121099295AURORA DO PARA                               PA1500958
A03904719701519467000105103730SAO LUIS DO PIAUI                            PI2210375
A03915124884263862000105100137NOVA ESPERANCA DO PIRIA                      PA1504950
A03924760901612623000188103748SAO MIGUEL DA BAIXA GRANDE                   PI2210383
A03954436522941355000118090964TAILANDIA                                    PA1507953
A03974420022981088000102091189TUCUMA                                       PA1508084
A03985544001612610000109103810SEBASTIAO LEAL                               PI2210631
A04010560305105127000199001058ABAETETUBA                                   PA1500107
A04025546401616855000104103888TAMBORIL DO PIAUI                            PI2210953
A04030792405196548000172001287ACARA                                        PA1500206
A04071690804838793000173002682ALENQUER                                     PA1500404
A04092122305139464000105002925ALMEIRIM                                     PA1500503
A04105550501612612000106104043WALL FERRAZ                                  PI2211704
A04133024505849955000131004278ANAJAS                                       PA1500701
A04140000001612375000175015180CAICARA DO NORTE                             RN2401859
A04174068204873600000115007528AUGUSTO CORREA                               PA1500909
A04180000001612395000146102768ITAJA                                        RN2404853
A04210765604876538000115008052BAGRE                                        PA1501105
A04240000001612438000193069930SANTA MARIA                                  RN2409332
A04251548005058458000115008915BARCARENA                                    PA1501303
A04260000001612371000197062715PORTO DO MANGUE                              RN2410256
A04280000001622882000190082678TIBAU                                        RN2411056
A04291184805058466000161010839BENEVIDES                                    PA1501501
A04332245904873592000107013188BRAGANCA                                     PA1501709
A04360000001612376000110083895TRIUNFO POTIGUAR                             RN2414456
A04373184205196563000110013900BUJARU                                       PA1501907
A04413801005105283000150016012CAMETA                                       PA1502103
A04444818901612473000102004170AMPARO                                       PB2500734
A04450783805149109000109018112CAPITAO POCO                                 PA1502301
A04480000001612685000190006610AREIA DE BARAUNAS                            PB2501153
A04491628304888111000137020915CHAVES                                       PA1502509
A04520000001612512000171008842BARAUNA                                      PB2501534
A04532582705070404000175021997CONCEICAO DO ARAGUAIA                        PA1502707
A04564786701621539000120101842BERNARDINO BATISTA                           PB2502052
A04573609805171939000132025020CURUCA                                       PA1502905
A04604798401612686000134102210CACIMBAS                                     PB2503555
A04610464204876397000130033529GURUPA                                       PA1503101
A04645610201612304000172017990CAPIM                                        PB2504033
A04685611901617975000126102350CASSERENGUE                                  PB2504157
A04691775605193123000100037206IRITUIA                                      PA1503507
A04725613301612757000107023868COXIXOLA                                     PB2504850
A04732697405077102000129039756ITUPIRANGA                                   PA1503705
A04764862201612372000131024945CURRAL DE CIMA                               PB2505279
A04773618405257555000137043109JURUTI                                       PA1503903
A04810129805171947000189046019MAGALHAES BARATA                             PA1504109
A04830693205853163000130046825MARABA                                       PA1504208
A04844872501612351000116047147MARCACAO                                     PB2509057
A04851007604880258000180046884MARACANA                                     PA1504307
A04871456005171681000174047007MARAPANIM                                    PA1504406
A04884775701612641000160048364MATINHAS                                     PB2509339
A04912601505846704000101049743MOCAJUBA                                     PA1504604
A04924783601612689000178102989MATUREIA                                     PB2509396
A04953495904838496000128050202MONTE ALEGRE                                 PA1504802
A04984803101615784000125103349POCO DE JOSE DE MOURA                        PB2512077
A04990362905149125000100053732NOVA TIMBOTEUA                               PA1505007
A05000000001612967000197103276PEDRO REGIS                                  PB2512721
A05031155604876413000195054240OEIRAS DO PARA                               PA1505205
A05040000001612343000170101974RIACHAO DO BACAMARTE                         PB2512754
A05072285105149133000148054917OUREM                                        PA1505403
A05085616401612637000100065609RIACHO DE SANTO ANTONIO                      PB2512788
A05112924905149158000141058793PEIXE-BOI                                    PA1505601
A05124843301612693000136103519SANTA INES                                   PB2513356
A05145617101613283000100103551JOCA CLAUDINO                                PB2513653
A05184851201612690000100103586SAO BENTINHO                                 PB2513927
A05190931704860854000107063312PRAINHA                                      PA1506005
A05200000001612650000150103624SAO DOMINGOS DO CARIRI                       PB2513943
A05231484505149166000198068187SALINOPOLIS                                  PA1506203
A05285621201612684000145074640SAO JOSE DE PRINCESA                         PB2514552
A05313260705149174000134070017SANTA MARIA DO PARA                          PA1506609
A05371048505149182000180071242SANTAREM NOVO                                PA1506906
A05384796001612649000126082333TENORIO                                      PB2516755
A05411929705351614000131072672SAO CAETANO DE ODIVELAS                      PA1507102
A05424816501612642000104088404ZABELE                                       PB2517407
A05452812305421300000168073040SAO FELIX DO XINGU                           PA1507300
A05465625001618704000195019542CASINHAS                                     PE2604155
A05493732705854534000107073806SAO JOAO DO ARAGUAIA                         PA1507508
A05505627401614878000180102784JATOBA                                       PE2608057
A05530740505105143000181077160SAO SEBASTIAO DA BOA VISTA                   PA1507706
A05571741905133863000150080489SOURE                                        PA1507904
A05585631501596018000160081221TAMANDARE                                    PE2614857
A05600000001631604000107102245CAMPESTRE                                    AL2701357
A05625674802917132000108112801JEQUIA DA PRAIA                              AL2703759
A05645271101616270000194003263ALTO CAPARAO                                 MG3102050
A05653436804873618000117087793VISEU                                        PA1508308
A05665292401113937000136101966ANGELANDIA                                   MG3102852
A05694182504144176000178066630RIO MARIA                                    PA1506161
A05745294801602009000135101362BRASILANDIA DE MINAS                         MG3108552
A05754472922938757000163091286BOM JESUS DO TOCANTINS                       PA1501576
A05774473622938773000156091294BREJO GRANDE DO ARAGUAIA                     PA1501758
A05785295501603707000155014192CABECEIRA GRANDE                             MG3109451
A05794456114145791000152090913CONCORDIA DO PARA                            PA1502756
A05825297901617441000108017655CANTAGALO                                    MG3112059
A05865299301612502000136102369CATUTI                                       MG3115474
A05894452334593525000108048682MEDICILANDIA                                 PA1504455
A05905301901612492000139022446CONEGO MARINHO                               MG3117836
A05914457822980643000181091170OURILANDIA DO NORTE                          PA1505437
A05945306401614862000177023329CORREGO FUNDO                                MG3119955
A05954417622980999000115091324PARAUAPEBAS                                  PA1505536
A05974477410222297000193091332RUROPOLIS                                    PA1506195
A05985308801615422000134024830CUPARAQUE                                    MG3120839
A06011243805989116000119003883AMAPA                                        AP1600105
A06025310501020881000175102539DELTA                                        MG3121258
A06031455305990437000133015547CALCOENE                                     AP1600204
A06065312901602782000100102547DOM BOSCO                                    MG3122470
A06071510505986427000124048615MAZAGAO                                      AP1600402
A06134422423066905000160090816LARANJAL DO JARI                             AP1600279
A06145316701612482000101030902GAMELEIRAS                                   MG3127339
A06154423123066640000108070840SANTANA                                      AP1600600
A06185322201615421000190031496GOIABEIRA                                    MG3127370
A06194418310249241000122091197SAO GERALDO DO ARAGUAIA                      PA1507458
A06225323901612549000108032824GUARACIAMA                                   MG3128253
A06235120083334672000160084840ULIANOPOLIS                                  PA1508126
A06265320801613233000122035670IMBE DE MINAS                                MG3130556
A06275112183211433000113099759GOIANESIA DO PARA                            PA1503093
A06295087834626416000131100285NOVO REPARTIMENTO                            PA1505064
A06305324601612476000146041114JAPONVAR                                     MG3135357
A06315066510221745000134040169JACAREACANGA                                 PA1503754
A06345326001613372000156042331JOSE GONCALVES DE MINAS                      MG3136520
A06385328401612503000180042439JOSENOPOLIS                                  MG3136579
A06415086134887935000153100943VITORIA DO XINGU                             PA1508357
A06425359001587109000130044652LEME DO PRADO                                MG3138351
A06435083084306737000127099180ACRELANDIA                                   AC1200013
A06455091984306620000143099368BUJARI                                       AC1200138
A06465331801612887000131045438LUISLANDIA                                   MG3138682
A06475097184306604000150099481CAPIXABA                                     AC1200179
A06505333201615420000145047961MARTINS SOARES                               MG3140530
A06515096484306588000104099678EPITACIOLANDIA                               AC1200252
A06545335601615007000180050466MONTE FORMOSO                                MG3143153
A06550000084306463000176047325MARECHAL THAUMATURGO                         AC1200351
A06575092663603625000168062901PORTO WALTER                                 AC1200393
A06615093384306521000161100676SANTA ROSA DO PURUS                          AC1200435
A06625339401613169000180052914NOVA BELEM                                   MG3144672
A06665341101613373000109103144NOVO ORIENTE DE MINAS                        MG3145356
A06675142034925198000136099619CUTIAS                                       AP1600212
A06700000001612547000100054437OLHOS-D'AGUA                                 MG3145455
A06735141334925222000137100390PRACUUBA                                     AP1600550
A06745345901616271000139054712ORIZANIA                                     MG3145877
A06774697863762058000192099414CACAULANDIA                                  RO1100601
A06785347301612479000180055492PAI PEDRO                                    MG3146552
A06810000063761902000160099465CANDEIAS DO JAMARI                           RO1100809
A06825348001640429000106058211PEDRA BONITA                                 MG3148756
A06865385101613130000162103306PIEDADE DE CARATINGA                         MG3150158
A06890000063762009000150099406NOVO HORIZONTE DO OESTE                      RO1100502
A06905351401612481000159103322PINTOPOLIS                                   MG3150570
A06945353801613377000189062235PONTO DOS VOLANTES                           MG3152170
A06950000063762074000185100056MINISTRO ANDREAZZA                           RO1101203
A06970000063787071000104100064MIRANTE DA SERRA                             RO1101302
A06990000063761993000134100749SERINGUEIRAS                                 RO1101500
A07013408306096655000191001570AFONSO CUNHA                                 MA2100105
A07025357601615371000140069108SANTA CRUZ DE MINAS                          MG3157336
A07045358301612497000161069167SANTA CRUZ DE SALINAS                        MG3157377
A07053909506096853000155002550ALDEIAS ALTAS                                MA2100303
A07085361701612484000192072109SANTO ANTONIO DO RETIRO                      MG3160454
A07090607306997571000129003387ALTO PARNAIBA                                MA2100501
A07125363101613121000171103470SAO FELIX DE MINAS                           MG3161056
A07130866206002372000133004286ANAJATUBA                                    MA2100709
A07165365501612494000128074039SAO JOAO DA LAGOA                            MG3162252
A07171343706450191000170005894ARAIOSES                                     MA2100907
A07225368601612516000150074470SAO JOAQUIM DE BICAS                         MG3162922
A07230535906014351000138007897BACABAL                                      MA2101202
A07265370301616854000160077461SAO SEBASTIAO DA VARGEM ALEGRE               MG3164431
A07270748106441430000125008419BALSAS                                       MA2101400
A07305372701612509000158078190SARZEDO                                      MG3165537
A07311070806769798000117009148BARRA DO CORDA                               MA2101608
A07351607006096218000178010812BENEDITO LEITE                               MA2101806
A07365374101612501000191072943SERRANOPOLIS DE MINAS                        MG3166956
A07394024206116743000108013480BREJO                                        MA2102101
A07425275901051819000140085057UNIAO DE MINAS                               MG3170438
A07465378901613128000193085812VARGEM ALEGRE                                MG3170578
A07470739506469837000160015369CAJARI                                       MA2102507
A07505380601609780000134085944VARJAO DE MINAS                              MG3170750
A07511064306156160000100017663CANTANHEDE                                   MA2102705
A07545382001614685000129086614VEREDINHA                                    MG3171071
A07551511206903553000130019330CARUTAPERA                                   MA2102903
A07585386801612674000100013420BREJETUBA                                    ES3201159
A07592483506235006000124020273CEDRAL                                       MA2103109
A07605210601609408000128047058MARATAIZES                                   ES3203320
A07625602301614334000118103365PONTO BELO                                   ES3204252
A07633065406104863000195021504CODO                                         MA2103307
A07645387501612865000171033642SAO ROQUE DO CANAA                           ES3204955
A07673517806113682000125021652COLINAS                                      MA2103505
A07685395401619232000195085693VILA VALERIO                                 ES3205176
A07714062005733472000177025089CURURUPU                                     MA2103703
A07740000001615882000162035351IGUABA GRANDE                                RJ3301876
A07750670506314439000175026794DUQUE BACELAR                                MA2103901
A07780000001612981000190060208PINHEIRAL                                    RJ3303955
A07820000001623783000122089478SAO FRANCISCO DE ITABAPOANA                  RJ3304755
A07831291906157051000108031470GODOFREDO VIANA                              MA2104305
A07860000001604139000107078875SEROPEDICA                                   RJ3305554
A07871740206138150000142031836GOVERNADOR ARCHER                            MA2104503
A07912229106140594000112031941GRACA ARANHA                                 MA2104701
A07930933106377063000148031992GRAJAU                                       MA2104800
A07940000001619207000101017140CANAS                                        SP3509957
A07971395606222616000193033871HUMBERTO DE CAMPOS                           MA2105005
A07980000001559766000173031127GAVIAO PEIXOTO                               SP3516853
A08011626906323208000128035190IGARAPE GRANDE                               MA2105203
A08020000001612150000119042757JUMIRIM                                      SP3525854
A08033464306158455000116035734IMPERATRIZ                                   MA2105302
A08050000006460018000152075833SAO LUIS GONZAGA DO MARANHAO                 MA2111409
A08060000001613202000171053023NOVA CASTILHO                                SP3532868
A08074045505648696000180038628ITAPECURU MIRIM                              MA2105401
A08092614907000300000110042005JOAO LISBOA                                  MA2105500
A08140000001576782000174063398PRATANIA                                     SP3541059
A08153246306460026000107043427LAGO DO JUNCO                                MA2105807
A08193868706933519000109044822LIMA CAMPOS                                  MA2106003
A08220000001611211000123070530SANTA SALETE                                 SP3547650
A08230668805292594000175045381LUIS DOMINGUES                               MA2106201
A08260000001572597000101083364TRABIJU                                      SP3554755
A08270719906119945000103048151MATA ROMA                                    MA2106409
A08311040906114631000118048453MATOES                                       MA2106607
A08325267001612453000131006866ARIRANHA DO IVAI                             PR4101853
A08351650606342240000150049670MIRINZAL                                     MA2106805
A08365268701612906000120011460BOA VENTURA DE SAO ROQUE                     PR4103040
A08392164906759104000160050695MONTES ALTOS                                 MA2107001
A08405270401611489000109016241CAMPINA DO SIMAO                             PR4103958
A08432517106124408000151052361NINA RODRIGUES                               MA2107209
A08444881101613765000160018449CARAMBEI                                     PR4104659
A08473001806014005000150054372OLHO D'AGUA DAS CUNHAS                       MA2107407
A08485278001615393000100024287CRUZMALTINA                                  PR4106852
A08513232206209936000103055964PALMEIRANDIA                                 MA2107605
A08520000001612634000168027880ESPIGAO ALTO DO IGUACU                       PR4107546
A08560000001603719000180102636FOZ DO JORDAO                                PR4108452
A08590513905277173000175057614PASTOS BONS                                  MA2108009
A08600000001616255000146032522GUAMIRANGA                                   PR4108957
A08630803306179402000181058866PENALVA                                      MA2108306
A08671205006189344000177059935PINDARE-MIRIM                                MA2108504
A08680000001612444000140059234PEROBAL                                      PR4118857
A08711646506447833000181060445PIO XII                                      MA2108702
A08720000001591618000136103381PORTO BARREIRO                               PR4120150
A08752159106202808000138061468POCAO DE PEDRAS                              MA2108900
A08760000001619104000141064157QUARTO CENTENARIO                            PR4120655
A08792660606138366000108063495PRESIDENTE DUTRA                             MA2109106
A08800000001612413000190089427RIO BRANCO DO IVAI                           PR4122172
A08833109306124739000191063703PRESIDENTE VARGAS                            MA2109304
A08873425805282801000100065340RIACHAO                                      MA2109502
A08880000001605479000152102008BALNEARIO ARROIO DO SILVA                    SC4201950
A08893218806351514000178075361SAO JOSE DE RIBAMAR                          MA2111201
A08913948041479569000169067598ROSARIO                                      MA2109601
A08920000001612528000184008583BANDEIRANTE                                  SC4202081
A08950502906226583000150069434SANTA HELENA                                 MA2109809
A08960000001612888000186010529BELA VISTA DO TOLDO                          SC4202131
A08970686006191001000147069680SANTA LUZIA                                  MA2110005
A09000000001551148000187012165BOM JESUS                                    SC4202537
A09011001463441836000141070181SANTA RITA                                   MA2110203
A09051436406398150000181072400SAO BENEDITO DO RIO PRETO                    MA2110401
A09080000001613120000127102415CHAPADAO DO LAGEADO                          SC4204194
A09091880306125389000188072567SAO BERNARDO                                 MA2110609
A09160000001566621000108029572FLOR DO SERTAO                               SC4205357
A09172761235101369000175073830SAO JOAO BATISTA                             MA2111003
A09200000001612745000174034177IBIAM                                        SC4206751
A09213740606307102000130075760SAO LUIS                                     MA2111300
A09240000001593132000137042900JUPIA                                        SC4209177
A09292538405631031000164080110SITIO NOVO                                   MA2111805
A09320000001610566000106055875PALMEIRA                                     SC4212056
A09333316306997563000182081981TASSO FRAGOSO                                MA2112001
A09360000001612844000156103497SALTINHO                                     SC4215356
A09370313106115307000114082902TIMON                                        MA2112209
A09380000001612847000190070700SANTA TEREZINHA DO PROGRESSO                 SC4215687
A09420000001612812000150103594SAO BERNARDINO                               SC4215752
A09452244205505839000103085197URBANO SANTOS                                MA2112605
A09480000001614019000190083801TREVISO                                      SC4218350
A09492992606439988000176086738VIANA                                        MA2112803
A09520000001612918000154006289ARARICA                                      RS4300877
A09533896206018568000116088030VITORINO FREIRE                              MA2113009
A09552183806229975000172012009BOM JARDIM                                   MA2102002
A09593779806029524000191058033PAULO RAMOS                                  MA2108108
A09614119307000268000172001252ACAILANDIA                                   MA2100055
A09634158807070873000110028215ESTREITO                                     MA2104057
A09640000001614158000114018244CARAA                                        RS4304713
A09650000023006331000134091464CAREIRO DA VARZEA                            AM1301159
A09660000001612869000150102385CERRITO                                      RS4305124
A09694191122812960000199005436APUI                                         AM1300144
A09700000001610869000110101745CHUVISCA                                     RS4305447
A09714307412842829000110082406TEOTONIO VILELA                              AL2709152
A09740000001609404000140025690DILERMANDO DE AGUIAR                         RS4306379
A09774686863787097000144100846URUPA                                        RO1101708
A09835105935049097000101020036CATUNDA                                      CE2303659
A09855551223718034000111099872JIJOCA DE JERICOACOARA                       CE2307254
A09865568401612289000162029823FLORIANO PEIXOTO                             RS4308250
A09940000001610568000197045675MACAMBARA                                    RS4311718
A09974990641522343000101099015JARDIM DO MULATO                             PI2205250
A10025576301621714000180051365MUITOS CAPOES                                RS4312617
A10033853906554760000127001732AGUA BRANCA                                  PI2200202
A10060000001611828000149103098NOVA RAMADA                                  RS4313334
A10072117506554794000111003581ALTOS                                        PI2200400
A10100000001612364000195057339PASSA SETE                                   RS4314068
A10110613806554752000180004634ANGICAL DO PIAUI                             PI2200608
A10140000001612776000125103845SETE DE SETEMBRO                             RS4320578
A10152577906554018000111004898ANTONIO ALMEIDA                              PI2200806
A10171792106554984000139006955AROAZES                                      PI2200905
A10214074706554281000100007749AVELINO LOPES                                PI2201101
A10220000001611538000103084794UBIRETAMA                                    RS4322343
A10251945506554224000121009709BARREIRAS DO PIAUI                           PI2201309
A10260000001624729000100103985VALE VERDE                                   RS4322525
A10290527006553903000186010120BATALHA                                      PI2201507
A10305480501612386000155104000VILA LANGARO                                 RS4323358
A10332481106554034000104011029BERTOLINIA                                   PI2201705
A10345464701617905000178102334CARLINDA                                     MT5102793
A10370897806554356000153012114BOM JESUS                                    PI2201903
A10425468501614521000100092886NOVA UBIRATA                                 MT5106240
A10451058806554042000150017671CANTO DO BURITI                              PI2202307
A10465471901614225000109103780SAPEZAL                                      MT5107875
A10493270006553622000123018309CARACOL                                      PI2202505
A10505213701613940000119101850ABADIA DE GOIAS                              GO5200050
A10545216801492098000104101940AMARALINA                                    GO5200829
A10573965506554257000171023469CORRENTE                                     PI2202901
A10585475701629276000104103128NOVO GAMA                                    GO5215231
A10612226006554364000108024147CRISTINO CASTRO                              PI2203107
A10625215101612756000154103527SANTA RITA DO NOVO DESTINO                   GO5219456
A10631393206554273000164024880CURIMATA                                     PI2203206
A10665476401616319000109096245VALPARAISO DE GOIAS                          GO5221858
A10673508206553705000112026140DOM EXPEDITO LOPES                           PI2203404
A10700000004216593000189115371CAMPO LIMPO DE GOIAS                         GO5204854
A10711681206554059000108027006ELISEU MARTINS                               PI2203602
A10740000004215377000119115398IPIRANGA DE GOIAS                            GO5210158
A10753904006554158000190029688FLORES DO PIAUI                              PI2203800
A10780000004173952000168115410BOM JESUS DO ARAGUAIA                        MT5101852
A10792663706554919000103030201FRANCINOPOLIS                                PI2204006
A10820000004219688000156115436CONQUISTA D'OESTE                            MT5103361
A10830425706553713000169030309FRANCISCO SANTOS                             PI2204204
A10860000004202280000171115452NOVA NAZARE                                  MT5106174
A10872516406554216000185031313GILBUES                                      PI2204402
A10900000004199966000150115479NOVO SANTO ANTONIO                           MT5106315
A10910967806554927000150033839HUGO NAPOLEAO                                PI2204600
A10920000004221486000149115487RONDOLANDIA                                  MT5107578
A10953092206553747000153036595IPIRANGA DO PIAUI                            PI2204808
A10960000004205596000117115509SANTA RITA DO TRIVELATO                      MT5107768
A10991817106553754000155037893ITAINOPOLIS                                  PI2205003
A11020000004215993000170115533VALE DE SAO DOMINGOS                         MT5108352
A11071727506554208000139042129JOAQUIM PIRES                                PI2205409
A11080000004214217000155115568JUNDIA                                       RN2406155
A11100000004216287000142115347BARROCAS                                     BA2903276
A11113698806554117000101044270LANDRI SALES                                 PI2205607
A11120000004214419000105115355LUIS EDUARDO MAGALHAES                       BA2919553
A11140000004217786000154115363GOVERNADOR LINDENBERG                        ES3202256
A11152281306554190000175045616LUZILANDIA                                   PI2205805
A11190702706554133000196047279MARCOS PARENTE                               PI2206001
A11200000004215782000137115584ALMIRANTE TAMANDARE DO SUL                   RS4300471
A11232508506553614000187048992MIGUEL ALVES                                 PI2206209
A11240000004216132000106115606BOA VISTA DO CADEADO                         RS4302220
A11293943506553770000148050075MONSENHOR HIPOLITO                           PI2206506
A11300000004218263000122115630CANUDOS DO VALE                              RS4304614
A11331890606554141000132052124NAZARE DO PIAUI                              PI2206704
A11340000004213779000184115657CAPAO DO CIPO                                RS4304655
A11370353306554836000114054097NOVO ORIENTE DO PIAUI                        PI2206902
A11410350206553911000122026301DOMINGOS MOURAO                              PI2203420
A11420000004214401000103115690FORQUETINHA                                  RS4308433
A11431519806553788000140055409PADRE MARCOS                                 PI2207207
A11460000004217901000190115711JACUIZINHO                                   RS4310876
A11492842206554851000162055948PALMEIRAIS                                   PI2207504
A11500000004204318000145115738MATO QUEIMADO                                RS4312179
A11511951006554265000118057207PARNAGUA                                     PI2207603
A11540000004215168000175115754PAULO BENTO                                  RS4314134
A11550190606553796000196057932PAULISTANA                                   PI2207801
A11592986106553804000102059633PICOS                                        PI2208007
A11620000004215994000114115797QUATRO IRMAOS                                RS4315313
A11630840406553812000140060437PIO IX                                       PI2208205
A11660000004215090000199115819SANTA CECILIA DO SUL                         RS4316733
A11672984706553861000183061050PIRIPIRI                                     PI2208403
A11700000004208358000165115835SAO JOSE DO SUL                              RS4318614
A11711345106636807000100063380PRATA DO PIAUI                               PI2208601
A11740000004207638000159115851TIO HUGO                                     RS4321469
A11753398106554943000142065064REGENERACAO                                  PI2208809
A11780000007158578000110115878FIGUEIRAO                                    MS5003900
A11810754606553960000165069132SANTA CRUZ DO PIAUI                          PI2209104
A11840000007209245000172115886IPIRANGA DO NORTE                            MT5104526
A11880000007165549000185115908AROEIRAS DO ITAIM                            PI2200954
A11891092806553945000117072273SANTO INACIO DO PIAUI                        PI2209500
A11933312506553994000150073288SAO FRANCISCO DO PIAUI                       PI2209708
A11971539406554331000150074330SAO JOAO DA SERRA                            PI2209906
A12013774306554000000110075264SAO JOSE DO PEIXE                            PI2210102
A12051106806553846000135075582SAO JULIAO                                   PI2210300
A12112436106772859000103076856SAO RAIMUNDO NONATO                          PI2210607
A12191183106554869000164082430TERESINA                                     PI2211001
A122000000              901220DEMAIS MUNICIPIOS                            PI0000000
A12233099106985832000190085332URUCUI                                       PI2211209
A12253198306554737000132085669VALENCA DO PIAUI                             PI2211308
A12273652406554950000144086118VARZEA GRANDE                                PI2211407
A12294122707102106000145025780DIRCEU ARCOVERDE                             PI2203354
A12314337323555170000138001295ACARAPE                                      CE2300150
A12430000012464103000191091413DEPUTADO IRAPUAN PINHEIRO                    CE2304269
A12474341423563067000130028436EUSEBIO                                      CE2304285
A12494342123467889000117031933GRACA                                        CE2304657
A12534344523555196000186033790HORIZONTE                                    CE2305233
A12574489112461646000155034312IBICUITINGA                                  CE2305332
A12654347612459616000104054208OCARA                                        CE2309458
A12694349010462208000186061000PIRES FERREIRA                               CE2310951
A12734463312464491000100068195SALITRE                                      CE2311959
A12774353123489834000108082279TEJUCUOCA                                    CE2313351
A12814480812542767000121091375ARAME                                        MA2100956
A12854336612511093000106090565SANTA LUZIA DO PARUA                         MA2110039
A12934992041522186000126099066PASSAGEM FRANCA DO PIAUI                     PI2207751
A12974735541522251000113098930BURITI DOS MONTES                            PI2202026
A13032903607547821000191001309ACARAU                                       CE2300200
A13050790007847379000119001341ACOPIARA                                     CE2300309
A13073432007568231000145002259AIUABA                                       CE2300408
A13113908807385503000171003085ALTANEIRA                                    CE2300606
A13150612107594500000148004880ANTONINA DO NORTE                            CE2300804
A13190923807911696000157005495AQUIRAZ                                      CE2301000
A13231334107387392000132005690ARACOIABA                                    CE2301208
A13271790707387525000170006408ARATUBA                                      CE2301406
A13312253807587983000153007307ASSARE                                       CE2301604
A13352375707520224000173008273BAIXIO                                       CE2301802
A13370165206740278000181008877BARBALHA                                     CE2301901
A13451159407566045000177010340BELA CRUZ                                    CE2302305
A13491786607620701000172013609BREJO SANTO                                  CE2302503
A13531921107416704000199016926CAMPOS SALES                                 CE2302701
A13572367807063589000116018040CAPISTRANO                                   CE2302909
A13612807507598600000142018821CARIRE                                       CE2303105
A13653259707540180000143018864CARIUS                                       CE2303303
A13693701107589369000120019496CASCAVEL                                     CE2303501
A13730155907616162000106020095CAUCAIA                                      CE2303709
A13770830107146301000177020893CHAVAL                                       CE2303907
A13811274407598618000144022918COREAU                                       CE2304004
A13850638907587975000107023906CRATO                                        CE2304202
A13893486307954605000160030066FORTALEZA                                    CE2304400
A139000000              901390DEMAIS MUNICIPIOS                            CE0000000
A13912232507598592000134030341FRECHEIRINHA                                 CE2304509
A13930811207438591000122031208GENERAL SAMPAIO                              CE2304608
A13952679207827165000180032093GRANJA                                       CE2304707
A13993122007598709000180032204GROAIRAS                                     CE2304905
A14110272307810468000190035459IGUATU                                       CE2305506
A14150920707520141000184036412IPAUMIRIM                                    CE2305704
A14191315207680846000169036781IPUEIRAS                                     CE2305902
A14231794507683188000169037125IRAUCUBA                                     CE2306108
A14272269307683956000184038512ITAPAGE                                      CE2306306
A14312704507387509000188038911ITAPIUNA                                     CE2306504
A14352861107442825000105040630JAGUARETAMA                                  CE2306702
A14393310107443708000166040681JAGUARIBE                                    CE2306900
A14433758507391006000186041254JARDIM                                       CE2307106
A14470484807974082000114042560JUAZEIRO DO NORTE                            CE2307304
A14551089407963051000168046990MARANGUAPE                                   CE2307700
A14591538707661192000126047910MARTINOPOLE                                  CE2307908
A14631976107655269000155048585MAURITI                                      CE2308104
A14672536007655277000100049077MILAGRES                                     CE2308302
A14713079507736390000101049930MOMBACA                                      CE2308500
A14753533607782840000100050784MORADA NOVA                                  CE2308708
A14793988207566920000110050911MORRINHOS                                    CE2308906
A14830488607910730000179051390MULUNGU                                      CE2309102
A14870909407993439000101053660NOVA RUSSAS                                  CE2309300
A14951558307963861000114055212PACATUBA                                     CE2309706
A14991992907734148000107055298PACUJA                                       CE2309904
A15032420607711666000105055760PALMACIA                                     CE2310100
A15072878307731102000126056731PARAMBU                                      CE2310308
A15113404507726540000104058238PEDRA BRANCA                                 CE2310506
A15153844307682651000158059021PENTECOSTE                                   CE2310704
A15190317907738057000131060488PIQUET CARNEIRO                              CE2310902
A15230913507654114000102062383PORTEIRAS                                    CE2311108
A15311850407807191000147064696QUIXERE                                      CE2311504
A15352065707598667000187065218RERIUTABA                                    CE2311702
A15392445707811946000187067890SABOEIRO                                     CE2311900
A15411117807598659000130070874SANTANA DO ACARAU                            CE2312007
A15432885507597347000102070955SANTANA DO CARIRI                            CE2312106
A15491861407533656000119073547SAO GONCALO DO AMARANTE                      CE2312403
A15532312807623051000119075817SAO LUIS DO CURU                             CE2312601
A15572910807598642000183078670SENADOR SA                                   CE2312809
A15613481807733256000157080390SOLONOPOLE                                   CE2313005
A15653656207705817000104081329TAMBORIL                                     CE2313203
A15690278507735178000120082643TIANGUA                                      CE2313401
A15731135007735541000107084620UBAJARA                                      CE2313609
A15812753307539273000158086053VARZEA ALEGRE                                CE2314003
A15894242207663917000115024317CRUZ                                         CE2304251
A15914235007673106000103030040FORQUILHA                                    CE2304350
A15934245310393593000157034886ICAPUI                                       CE2305357
A15954233607663941000154039225ITAREMA                                      CE2306553
A15974239806741565000106049093MILHA                                        CE2308351
A16010000008097008000120001317ACARI                                        RN2400109
A16070000008357626000161001864AGUA NOVA                                    RN2400406
A16110000008348997000187002941ALMINO AFONSO                                RN2400604
A16150864808085409000160004642ANGICOS                                      RN2400802
A16191314508349011000193005363APODI                                        RN2401008
A16230000008161234000122006726ARES                                         RN2401206
A16250000008084014000142007560CAMPO GRANDE (EX-AUGUSTO SEVERO)             RN2401305
A16270000008161341000150008087BAIA FORMOSA                                 RN2401404
A16310000008110884000149010901BENTO FERNANDES                              RN2401602
A16330000008002404000126012122BOM JESUS                                    RN2401701
A16370000008351819000105015199CAICARA DO RIO DO VENTO                      RN2401909
A16430000008365017000154017450CANGUARETAMA                                 RN2402204
A16470000008088254000115019097CARNAUBA DOS DANTAS                          RN2402402
A16510000008004061000139020257CEARA-MIRIM                                  RN2402600
A16550000008158669000118023078CORONEL EZEQUIEL                             RN2402808
A16630000008355489000126026689DOUTOR SEVERIANO                             RN2403202
A16670000008086225000114027588EQUADOR                                      RN2403400
A16710000008204497000171028517EXTREMOZ                                     RN2403608
A16750000008181562000190029610FLORANIA                                     RN2403806
A16790000008110991000177030791GALINHOS                                     RN2404101
A16830000008349094000110031852GOVERNADOR DIX-SEPT ROSADO                   RN2404309
A16870000008184442000147032514GUAMARE                                      RN2404507
A16910000008085318000124036374IPANGUACU                                    RN2404705
A16953594108148553000106039365ITAU                                         RN2404903
A17050000008159071000143041076JAPI                                         RN2405405
A17090000008096604000195041335JARDIM DE PIRANHAS                           RN2405603
A17133939408309536000103041955JOAO CAMARA                                  RN2405801
A17250000008143026000109043796LAGOA DE PEDRAS                              RN2406304
A17330000008113466000105044130LAJES                                        RN2406700
A17412844608234148000100045659MACAIBA                                      RN2407104
A17490000008170540000125048593MAXARANGUAPE                                 RN2407500
A17510000008349052000180030619FRUTUOSO GOMES                               RN2404002
A17530000008354383000108050172MONTANHAS                                    RN2407708
A17570000008196941000154050474MONTE DAS GAMELEIRAS                         RN2407906
A17610773508241747000143051942NATAL                                        RN2408102
A176200000              901762DEMAIS MUNICIPIOS                            RN0000000
A17650000008144784000133053058NOVA CRUZ                                    RN2408300
A17730000008084691000160057061PARAU                                        RN2408706
A17770000008087561000181057134PARELHAS                                     RN2408904
A17810000008144982000105057312PASSA E FICA                                 RN2409100
A17850000008349078000128057762PATU                                         RN2409308
A17930000008294654000187058602PEDRO AVELINO                                RN2409704
A17970000008122657000133058890PENDENCIAS                                   RN2409902
A18010000008311904000140061522POCO BRANCO                                  RN2410108
A18070000008290223000142064025PUREZA                                       RN2410405
A18110000008153454000104065498RIACHO DA CRUZ                               RN2410702
A18190000008078958000107067822RUY BARBOSA                                  RN2411106
A18270000008110439000189071064SANTANA DO MATOS                             RN2411403
A18290000008144800000198071536SANTO ANTONIO                                RN2411502
A18310000008114514000180072508SAO BENTO DO NORTE                           RN2411601
A18350000008096612000131073059SAO FERNANDO                                 RN2411809
A18410000008365850000103075183SAO JOSE DE MIPIBU                           RN2412203
A18450000008096083000176075469SAO JOSE DO SERIDO                           RN2412401
A18493224308079774000161076392SAO PAULO DO POTENGI                         RN2412609
A18530000008085417000106076805SAO RAFAEL                                   RN2412807
A18570000008308470000129077780SAO VICENTE                                  RN2413003
A18630000008146680000168079170SERRA DE SAO BENTO                           RN2413300
A18690000008358046000199079650SEVERIANO MELO                               RN2413607
A18730000008157810000168080977TABOLEIRO GRANDE                             RN2413805
A18830000008096596000187082805TIMBAUBA DOS BATISTAS                        RN2414308
A18870331308348963000192084883UMARIZAL                                     RN2414506
A18910000008168940000104086029VARZEA                                       RN2414704
A18970000008158198000148086843VICOSA                                       RN2414902
A19011190309145368000112001740AGUA BRANCA                                  PB2500106
A19033850808939944000130002160AGUIAR                                       PB2500205
A19051679508753204000105002313ALAGOA GRANDE                                PB2500304
A19070604208700684000146002321ALAGOA NOVA                                  PB2500403
A19092114408926263000138002348ALAGOINHA                                    PB2500502
A19151321708778029000100005533ARACAGI                                      PB2500809
A19213557008754111000103006602AREIA                                        PB2501104
A19254012508865636000108006963AROEIRAS                                     PB2501302
A19270000012755971000120091685SERRA DO MEL                                 RN2413359
A19310146308927915000159008478BANANEIRAS                                   PB2501500
A19332778408993925000192009431BARRA DE SANTA ROSA                          PB2501609
A19373245608924581000160010294BAYEUX                                       PB2501807
A19413815108920126000196010570BELEM DO BREJO DO CRUZ                       PB2502003
A19450618308923989000117012149BOM JESUS                                    PB2502201
A19490879608924037000118012777BONITO DE SANTA FE                           PB2502409
A19553040309070400000148012920BORBOREMA                                    PB2502706
A19593555609164716000107013617BREJO DOS SANTOS                             PB2502904
A19633667208702862000178014150CABACEIRAS                                   PB2503100
A19670136008923997000163014583CACHOEIRA DOS INDIOS                         PB2503308
A19710698708929648000159014796CACIMBA DE DENTRO                            PB2503506
A19751018608923971000115015385CAJAZEIRAS                                   PB2503704
A19791448109073271000141015741CAMALAU                                      PB2503902
A19832837408924003000123019240CARRAPATEIRA                                 PB2504108
A19873296809067562000127019933CATOLE DO ROCHA                              PB2504306
A19913982009151473000164022349CONDADO                                      PB2504504
A19950389408870164000181022462CONGO                                        PB2504702
A19990935508902934000120024368CRUZ DO ESPIRITO SANTO                       PB2504900
A20031398708732174000150024686CUITE                                        PB2505105
A20071843208886947000153024988CURRAL VELHO                                 PB2505303
A20115623609151598000194025534VISTA SERRANA                                PB2505501
A20130842808942229000157025593DIAMANTE                                     PB2505600
A20171402708787012000110026751DUAS ESTRADAS                                PB2505808
A20252236308737785000191030465FREI MARTINHO                                PB2506202
A20292725808809444000184033499GURINHEM                                     PB2506400
A20332900508943268000179034215IBIARA                                       PB2506608
A20350861708883969000160035637IMACULADA                                    PB2506707
A20391372909072430000193037320ITABAIANA                                    PB2506905
A20450454908865628000161039349ITATUBA                                      PB2507200
A20471980208947699000103040134JACARAU                                      PB2507309
A20510908708778326000156042048JOAO PESSOA                                  PB2507507
A205200000              902052DEMAIS MUNICIPIOS                            PB0000000
A20552304908996886000187042536JUAZEIRINHO                                  PB2507705
A20574072309084054000157042790JUNCO DO SERIDO                              PB2507804
A20610489308888950000106043028JURU                                         PB2508000
A20731852808924813000180045284LUCENA                                       PB2508604
A20812451209148131000195046370MANAIRA                                      PB2509008
A20852886208739138000119048054MASSARANDUBA                                 PB2509206
A20893542208866501000167049832MOGEIRO                                      PB2509404
A20933935608924011000170050490MONTE HOREBE                                 PB2509602
A20970463508786865000137051411MULUNGU                                      PB2509800
A21010683908999708000100052140NAZAREZINHO                                  PB2510006
A21051260308889297000108053490NOVA OLINDA                                  PB2510204
A21091671908944076000187054313OLHO D'AGUA                                  PB2510402
A21132274108872459000197055085OURO VELHO                                   PB2510600
A21172316609084815000170057681PATOS                                        PB2510808
A21212909808889826000165058220PEDRA BRANCA                                 PB2511004
A21253372309072455000197058440PEDRAS DE FOGO                               PB2511202
A21293859108741399000173059650PICUI                                        PB2511400
A21330283308786626000187059781PILOES                                       PB2511608
A21370834908789299000117061107PIRPIRITUBA                                  PB2511806
A21411268908741688000172061484POCINHOS                                     PB2512002
A21451773209074113000106063363PRATA                                        PB2512200
A21492282009001744000103064068PUXINANA                                     PB2512408
A21532708308881567000126064637QUIXABA                                      PB2512606
A21613202308881666000108068101SALGADINHO                                   PB2513000
A21653662708999690000146068977SANTA CRUZ                                   PB2513208
A21690110209090689000167069701SANTA LUZIA                                  PB2513406
A21730706508942211000155070998SANTANA DOS GARROTES                         PB2513604
A21771021008882524000165070637SANTA TERESINHA                              PB2513802
A21811469409074345000164073903SAO JOAO DO CARIRI                           PB2514008
A21851901508999682000108075086SAO JOSE DA LAGOA TAPADA                     PB2514206
A21892348908882730000175074969SAO JOSE DE ESPINHARAS                       PB2514404
A21932789408882862000105074810SAO JOSE DO BONFIM                           PB2514602
A21951468708883217000107075434SAO JOSE DO SABUGI                           PB2514701
A21991902208922718000147075930SAO MAMEDE                                   PB2514909
A22030000008742439000100077240SAO SEBASTIAO DE LAGOA DE ROCA               PB2515104
A22072777708917080000156077917SAPE                                         PB2515302
A22090568908916124000123078840SERIDO                                       PB2515401
A22131161108789737000147079146SERRA DA RAIZ                                PB2515609
A22171593008868937000195079154SERRA REDONDA                                PB2515807
A22212168708787236000121080322SOLANEA                                      PB2516003
A22252603908999674000153080497SOUSA                                        PB2516201
A22292804408787392000192081051TACIMA                                       PB2516409
A22352040608883951000168082198TEIXEIRA                                     PB2516706
A22432799708884066000101086037VARZEA                                       PB2517100
A22534988941522376000143099155COLONIA DO PIAUI                             PI2202778
A22554747241522160000188098981CORONEL JOSE DIAS                            PI2202851
A22674765441522103000107099147VARZEA BRANCA                                PI2211357
A22694733141522152000131098892ALEGRETE DO PIAUI                            PI2200277
A22754744141522269000115099040MARCOLANDIA                                  PI2205953
A22794755141522202000180099074QUEIMADA NOVA                                PI2208650
A22814994441522137000193098876SANTANA DO PIAUI                             PI2209351
A22834723841522236000175099341BRASILEIRA                                   PI2201960
A22854759941522111000145099112SAO JOSE DO DIVINO                           PI2210052
A22895174340893778000191043591LAGOA DO CARRO                               PE2608453
A22915099540893646000160086665VERTENTE DO LERIO                            PE2616183
A22995089235667377000183026484DORMENTES                                    PE2605152
A23070822210183929000157001872AGUA PRETA                                   PE2600401
A23111232811043981000170002356ALAGOINHA                                    PE2600609
A23132999510164028000118002879ALIANCA                                      PE2600708
A23192129210130755000164004596ANGELIM                                      PE2601003
A23232656510105955000167006556ARCOVERDE                                    PE2601201
A23272754010110989000140009806BARREIROS                                    PE2601409
A23290798610184703000170010596BELEM DE MARIA                               PE2601508
A23331146010260222000105010723BELO JARDIM                                  PE2601706
A23371585110091510000175011096BEZERROS                                     PE2601904
A23412187611285954000104011967BOM CONSELHO                                 PE2602100
A23493121311358173000100013455BREJINHO                                     PE2602506
A23533632810165165000177013854BUENOS AIRES                                 PE2602704
A23573736511294402000162014230CABO DE SANTO AGOSTINHO                      PE2602902
A23610193710091619000102014710CACHOEIRINHA                                 PE2603108
A23650747411034741000100015520CALCADO                                      PE2603306
A23673297510279107000174015709CALUMBI                                      PE2603405
A23691077710766129000169016098CAMOCIM DE SAO FELIX                         PE2603504
A23713749911362779000101016950CAMUTANGA                                    PE2603603
A23750187211256088000123018201CAPOEIRAS                                    PE2603801
A23790758411097342000198019208CARPINA                                      PE2604007
A23833314910186138000180019828CATENDE                                      PE2604205
A23910392810150068000100022357CONDADO                                      PE2604601
A23950905610273548000169023523CORTES                                       PE2604809
A24031807811294303000180027731ESCADA                                       PE2605202
A24072049911097243000106028975FEIRA NOVA                                   PE2605400
A24112560710347466000111029645FLORES                                       PE2605608
A24153126811361854000110030473FREI MIGUELINHO                              PE2605806
A24193337611303906000100030929GARANHUNS                                    PE2606002
A24233989910150043000107031526GOIANA                                       PE2606200
A24270433611049830000120032140GRAVATA                                      PE2606408
A24310787610105971000150034320IBIMIRIM                                     PE2606606
A24351195810359560000190035238IGARASSU                                     PE2606804
A24432216711294386000108036633IPOJUCA                                      PE2607208
A24472705210114502000105037613ITACURUBA                                    PE2607406
A24513149509680315000100038156ILHA DE ITAMARACA                            PE2607604
A24553605010150076000157039187ITAQUITINGA                                  PE2607802
A24630918010192441000196042110JOAQUIM NABUCO                               PE2608206
A24671412010141489000175042986JUREMA                                       PE2608404
A24711561711286267000103043761LAGOA DO OURO                                PE2608602
A24752010710143246000176044091LAJEDO                                       PE2608800
A24792456711361888000104045721MACAPARANA                                   PE2609006
A24832889310193332000193046957MARAIAL                                      PE2609204
A24873544611049822000183050865MORENO                                       PE2609402
A24912112010404184000109054500OLINDA                                       PE2609600
A24953552510114767000103054763OROCO                                        PE2609808
A24993648310212447000188055786PALMARES                                     PE2610004
A25030104710215176000114056243PANELAS                                      PE2610202
A25110989811097383000184057827PAUDALHO                                     PE2610608
A25151580610106227000170058173PEDRA                                        PE2610806
A25232592010265429000164061441POCAO                                        PE2611200
A25250360511049848000121061808POMBOS                                       PE2611309
A25290964710145225000190064530QUIPAPA                                      PE2611507
A253200000              902532DEMAIS MUNICIPIOS                            PE0000000
A25352520511343910000193065749RIBEIRAO                                     PE2611804
A25431488311361243000171068152SALGUEIRO                                    PE2612208
A25471038211044906000124068608SANHARO                                      PE2612406
A25492796610091569000163069035SANTA CRUZ DO CAPIBARIBE                     PE2612505
A25532356811361730000134069957SANTA MARIA DO CAMBUCA                       PE2612703
A25571915610145803000198072419SAO BENEDITO DO SUL                          PE2612901
A25633253510146371000130073741SAO JOAO                                     PE2613206
A25672803710111631000131074926SAO JOSE DA COROA GRANDE                     PE2613404
A25712802011354180000126074942SAO JOSE DO EGITO                            PE2613602
A25751924211361896000150077828SAO VICENTE FERRER                           PE2613800
A25791595411361250000173079332SERRITA                                      PE2614006
A25892718611361862000166080713SURUBIM                                      PE2614501
A25931934510091601000100081027TACAIMBO                                     PE2614709
A25970664010150050000109038253ITAMBE                                       PE2607653
A26032930411361201000130082538TERRA NOVA                                   PE2615201
A26072617011256054000139083232TORITAMA                                     PE2615409
A26151839110106250000164084220TUPANATINGA                                  PE2615805
A26191167310106268000166086444VENTUROSA                                    PE2616001
A26230573710296887000160086673VERTENTES                                    PE2616209
A26294166708260663000157015814CAMARAGIBE                                   PE2603454
A26334165008637399000128038890ITAPISSUMA                                   PE2607752
A26375107335445527000104064610QUIXABA                                      PE2611533
A26415606135561471000153100315PARIPUEIRA                                   AL2706448
A26435103524176307000106099694ESTRELA DE ALAGOAS                           AL2702553
A26454430335634435000172100307PARICONHA                                    AL2706422
A26515021866229105000125018074CAPITAO ANDRADE                              MG3112653
A26535023226218636000106020001CATUJI                                       MG3115458
A26555031166230384000147040835JAMPRUCA                                     MG3135076
A26675061066229634000129100609SANTA BARBARA DO LESTE                       MG3157252
A26715048366229717000118084646UBAPORANGA                                   MG3170057
A26735044538515573000120007109SANTANA DO PARAISO                           MG3158953
A26755025666232547000120026816DURANDE                                      MG3123528
A26795046922705248000190074055SAO JOAO DO MANTENINHA                       MG3162575
A26815012226130617000115002780ALFREDO VASCONCELOS                          MG3101631
A26835027026139790000184029360FERVEDOURO                                   MG3125952
A26915032864487614000122042528JUATUBA                                      MG3136652
A26975039725223983000156050741MONTEZUMA                                    MG3143450
A27012947612350153000148001759AGUA BRANCA                                  AL2700102
A27032131912227351000119004235ANADIA                                       AL2700201
A27051341312198693000158006033ARAPIRACA                                    AL2700300
A27070449112200143000126007404ATALAIA                                      AL2700409
A27112394612263869000108009504BARRA DE SAO MIGUEL                          AL2700607
A27193519212264396000163011754BOCA DA MATA                                 AL2701001
A27231079112227971000158014800CACIMBINHAS                                  AL2701209
A27273299912264628000183016390CAMPO ALEGRE                                 AL2701407
A27311540412367892000142017094CANAPI                                       AL2701605
A27353757812250684000169019178CARNEIROS                                    AL2701803
A27392629712198719000168021580COITE DO NOIA                                AL2702009
A27430395912200325000105022772COQUEIRO SECO                                AL2702207
A27453528812264230000147023590CORURIPE                                     AL2702306
A27491753612250908000132026050DOIS RIACHOS                                 AL2702504
A27533838812242020000158029122FELIZ DESERTO                                AL2702702
A27572107212207536000161031330GIRAU DO PONCIANO                            AL2702900
A27610273012228375000192035092IGACI                                        AL2703106
A27652579312226197000160036137INHAPI                                       AL2703304
A27690771112247755000174040398JACUIPE                                      AL2703502
A27732877612207544000108041238JARAMATAIA                                   AL2703700
A27771408912248100000110042803JUNDIA                                       AL2703908
A27813322812207551000100043583LAGOA DA CANOA                               AL2704104
A27851125712200135000180045802MACEIO                                       AL2704302
A278600000              902786DEMAIS MUNICIPIOS                            AL0000000
A27913200912251286000167047082MARAVILHA                                    AL2704609
A27950101612236873000187047503MARIBONDO                                    AL2704807
A27970685312333761000144046795MAR VERMELHO                                 AL2704906
A28011424712342663000173048496MATRIZ DE CAMARAGIBE                         AL2705101
A28052507812237038000161049166MINADOR DO NEGRAO                            AL2705309
A28093615312332953000136051640MURICI                                       AL2705507
A28113940412248878000120054062NOVO LINO                                    AL2705606
A28150851412350146000146054364OLHO D'AGUA DO CASADO                        AL2705804
A28191674012257762000157054593OLIVENCA                                     AL2706000
A28273230812369880000157056324PAO DE ACUCAR                                AL2706406
A28351204312247268000101059498PIACABUCU                                    AL2706802
A28392084612335436000110059943PINDOBA                                      AL2707008
A28433043412259040000131061646POCO DAS TRINCHEIRAS                         AL2707206
A28473970308629446000191062804PORTO DE PEDRAS                              AL2707404
A28490378412207429000133062820PORTO REAL DO COLEGIO                        AL2707503
A28510970212241675000101064262QUEBRANGULO                                  AL2707602
A28531211512200168000120066591RIO LARGO                                    AL2707701
A28571907712200317000150069795SANTA LUZIA DO NORTE                         AL2707909
A28612798012332979000184071080SANTANA DO MUNDAU                            AL2708105
A28690732612342671000110075892SAO LUIS DO QUITUNDE                         AL2708501
A28772370212200333000143078212SATUBA                                       AL2708907
A28813267612207445000126081760TAQUARANA                                    AL2709103
A28850342312332946000134085073UNIAO DOS PALMARES                           AL2709301
A28894135108439549000199023876CRAIBAS                                      AL2702355
A28914220212421137000107078662SENADOR RUI PALMEIRA                         AL2708956
A28935030425209149000106099848JAIBA                                        MG3135050
A28955036625212242000170046353MAMONAS                                      MG3139250
A29090000039485438000142010634BELFORD ROXO                                 RJ3300456
A29110000039485412000102064319QUEIMADOS                                    RJ3304144
A29130000039485396000140041050JAPERI                                       RJ3302270
A29170000039217831000155085995VARRE-SAI                                    RJ3306156
A29190000036288900000123005282APERIBE                                      RJ3300159
A29270000039554597000151099961COMENDADOR LEVY GASPARIAN                    RJ3300951
A29294883539385927000122047317MARECHAL FLORIANO                            ES3203346
A29355605436350346000167100927VILA PAVAO                                   ES3205150
A29370000059767921000127045187LOURDES                                      SP3527256
A29494906167996363000108027278ENGENHEIRO COELHO                            SP3515152
A29534909267172437000183098787HOLAMBRA                                     SP3519055
A29550000067160481000173084093TUIUTI                                       SP3554953
A29570000067160507000183085782VARGEM                                       SP3556354
A29634886664614381000181058548PEDRINHAS PAULISTA                           SP3537156
A29650000068020916000147011010BERTIOGA                                     SP3506359
A29690000064037872000107099783ILHA COMPRIDA                                SP3520426
A29750000065711723000144027014ELISIARIO                                    SP3514924
A29790000065711699000143053856NOVAIS                                       SP3533254
A29810000065712002000159007277ASPASIA                                      SP3503950
A29930921465042855000120063037POTIM                                        SP3540754
A29950000067360420000150002380ALAMBARI                                     SP3500758
A29994899067360404000167016225CAMPINA DO MONTE ALEGRE                      SP3509452
A30054615016440778000151092576MUQUEM DE SAO FRANCISCO                      BA2922250
A30094617432697583000148053260NOVA IBIA                                    BA2922755
A30134619816255077000142054038NOVO HORIZONTE                               BA2923035
A30154633216298945000171092584NOVO TRIUNFO                                 BA2923050
A30234623913071253000106092606PRESIDENTE TANCREDO NEVES                    BA2925758
A30274625316418683000131065854RIBEIRAO DO LARGO                            BA2926657
A30314721416430951000130092614SAO FELIX DO CORIBE                          BA2929057
A30334628416443632000160075060SAO JOSE DO JACUIPE                          BA2929370
A30394630116417784000198088668SERRA DO RAMALHO                             BA2930154
A30434596213452958000165080152SITIO DO QUINTO                              BA2930766
A30474598616449902000140084948UMBURANAS                                    BA2932457
A30514600216412017000196091227VEREDA                                       BA2933257
A30650000058987629000157003603ALUMINIO                                     SP3501152
A30714224013891536000196004049AMERICA DOURADA                              BA2901155
A30734255613658158000103006351ARATACA                                      BA2902252
A30754252513234349000130009911BARRO ALTO                                   BA2903235
A30794253213234000000106014044BURITIRAMA                                   BA2904753
A30834250113230982000150018015CAPIM GROSSO                                 BA2906873
A30854229513343967000118017698CANUDOS                                      BA2906824
A30914264213232996000102029467FILADELFIA                                   BA2910859
A30994254913891510000148041998JOAO DOURADO                                 BA2918357
A31051353013128780000100005568ARACAJU                                      SE2800308
A310600000              903106DEMAIS MUNICIPIOS                            SE0000000
A31090000013100995000104006637AREIA BRANCA                                 SE2800506
A31150000013097068000182012866BOQUIM                                       SE2800670
A31174426216233439000102028428EUNAPOLIS                                    BA2910727
A31190000013134614000108016527CAMPO DO BRITO                               SE2801009
A31270000013099882000136018813CARIRA                                       SE2801405
A31310000013117601000120020346CEDRO DE SAO JOAO                            SE2801603
A31370000013112289000182024740CUMBE                                        SE2801900
A31410000013097050000180028070ESTANCIA                                     SE2802106
A31453105513100102000120030490FREI PAULO                                   SE2802304
A31530000013111224000112035548ILHA DAS FLORES                              SE2802700
A31571814013104740000110037338ITABAIANA                                    SE2802908
A31610000013113063000104037400ITABI                                        SE2803104
A31690000013124052000111043389LAGARTO                                      SE2803500
A31770000013104757000177046280MALHADOR                                     SE2803906
A31810000013104112000134049913MOITA BONITA                                 SE2804102
A31850000013094222000162051624MURIBECA                                     SE2804300
A31870258913111679000138052183NEOPOLIS                                     SE2804409
A31910000013094446000174052574NOSSA SENHORA DAS DORES                      SE2804607
A31990000013100482000101058327PEDRA MOLE                                   SE2805000
A32030000013100680000167060194PINHAO                                       SE2805208
A32110000013131982000100062650PORTO DA FOLHA                               SE2805604
A32150000013107180000157065390RIACHAO DO DANTAS                            SE2805802
A32230000013107453000163068110SALGADO                                      SE2806206
A32270000067363416000145083291TORRE DE PEDRA                               SP3554656
A32290000013109954000189070475SANTA ROSA DE LIMA                           SE2806503
A32330000013128855000144072796SAO CRISTOVAO                                SE2806701
A32370000013118435000187073091SAO FRANCISCO                                SE2806909
A32410309013108089000156079863SIMAO DIAS                                   SE2807105
A32490000013099205000118083143TOMAR DO GERU                                SE2807501
A32534632516298929000189001511ADUSTINA                                     BA2900355
A32614637016298614000131092517BANZAE                                       BA2902658
A32654639416245375000151012742BONITO                                       BA2904050
A32694641116418717000198014923CAETANOS                                     BA2905156
A32734643516257719000142020079CATURAMA                                     BA2907558
A32754644216416125000137092550FEIRA DA MATA                                BA2910776
A32794570416234429000183092525ITABELA                                      BA2914653
A32834647313866843000117092533ITATIM                                       BA2916856
A32874649716412025000132042650JUCURUCU                                     BA2918456
A32914609516434441000131044121LAJEDO DO TABOCAL                            BA2919058
A32994614316445876000181051420MULUNGU DO MORRO                             BA2922052
A33010244813670021000166001082ABAIRA                                       BA2900108
A33033368213915657000120001104ABARE                                        BA2900207
A33052466013696521000177001260ACAJUTIBA                                    BA2900306
A33133010413646005000138002372ALAGOINHAS                                   BA2900702
A33171242114147466000129002895ALMADINA                                     BA2900900
A33213466713607213000128004014AMELIA RODRIGUES                             BA2901106
A33270870313654421000188004626ANGICAL                                      BA2901403
A33313477713808217000174004855ANTAS                                        BA2901601
A33351259313908728000168004987ANTONIO GONCALVES                            BA2901809
A33370412313646542000188005371APORA                                        BA2901908
A33394034514105712000180005469ARACATU                                      BA2902005
A33412688814232086000192005673ARACI                                        BA2902104
A33450651613796073000183006416ARATUIPE                                     BA2902302
A33492892713654413000131008109BAIANOPOLIS                                  BA2902500
A33531115413880703000101008982BARRA                                        BA2902708
A33573346213906789000196009113BARRA DO CHOCA                               BA2902906
A33611562414234850000169009423BARRA DO ROCHA                               BA2903102
A33653795614147458000182031895BARRO PRETO                                  BA2903300
A33692059214237333000143010685BELO CAMPO                                   BA2903508
A33730409913894894000152011401BOA NOVA                                     BA2903706
A33792140513922612000183012696BONINAL                                      BA2904001
A33833938713782479000107013102BOTUPORA                                     BA2904209
A33872651013654439000180013650BREJOLANDIA                                  BA2904407
A33910414714105704000133013757BRUMADO                                      BA2904605
A33952743013856372000166014133CAATIBA                                      BA2904803
A33990682213676788000100014850CACULE                                       BA2905008
A34033196913811476000154014966CAETITE                                      BA2905206
A34070998414235907000144015288CAIRU                                        BA2905404
A34110000013682398000135015717CAMACAN                                      BA2905602
A34151425413753306000160015750CAMAMU                                       BA2905800
A34231867613714464000101017132CANARANA                                     BA2906204
A34270680813607635000101017213CANDEAL                                      BA2906402
A34350991513806567000100017620CANSANCAO                                    BA2906808
A34392739914126254000165018660CARDEAL DA SILVA                             BA2907004
A34431416813691811000128019429CASA NOVA                                    BA2907202
A34473197613654447000126019895CATOLANDIA                                   BA2907400
A34512028614136816000151020427CENTRAL                                      BA2907608
A34553861813808613000100021075CICERO DANTAS                                BA2907806
A34592585814147474000175021393COARACI                                      BA2908002
A34630356413828371000108022080CONCEICAO DA FEIRA                           BA2908200
A34673037913843842000157022063CONCEICAO DO COITE                           BA2908408
A34710876514126692000123022373CONDE                                        BA2908606
A34753490414106553000138022691CONTENDAS DO SINCORA                         BA2908804
A34791267213694468000175022861CORDEIROS                                    BA2909000
A34810355713912084000181022950CORIBE                                       BA2909109
A34890637213763396000170023922CRAVOLANDIA                                  BA2909505
A34933103113655089000176024198CRISTOPOLIS                                  BA2909703
A34971380813915640000173024864CURACA                                       BA2909901
A34990701013700174000109025232DARIO MEIRA                                  BA2910008
A35013487013673314000105026107DOM BASILIO                                  BA2910107
A35032590613827019000158026190DOM MACEDO COSTA                             BA2910206
A35051676413693379000104027022ELISIO MEDRADO                               BA2910305
A35071252413907373000192027170ENCRUZILHADA                                 BA2910404
A35113131613885231000171028010ESPLANADA                                    BA2910602
A35151147714043574000151029017FEIRA DE SANTANA                             BA2910800
A35231893714195358000121030910GANDU                                        BA2911204
A35270323414217335000170031410GLORIA                                       BA2911402
A35313052013828496000138031909GOVERNADOR MANGABEIRA                        BA2911600
A35350969213634985000159033103GUARATINGA                                   BA2911808
A35393364413676986000166034223IBIASSUCE                                    BA2912004
A35431138113922588000182034274IBICOARA                                     BA2912202
A35473803413714803000150034339IBIPEBA                                      BA2912400
A35490546913880711000140070238SANTA RITA DE CASSIA                         BA2928406
A35530557913718671000134034398IBIQUERA                                     BA2912608
A35572897214210389000104034525IBIRAPUA                                     BA2912806
A35611137413781828000176034592IBITIARA                                     BA2913002
A35653362013798152000123034835IBOTIRAMA                                    BA2913200
A35691624513811484000109035122IGAPORA                                      BA2913408
A35733903313672597000162035580ILHEUS                                       BA2913606
A35772212913621735000184036439IPECAETA                                     BA2913804
A35810411614042659000115036528IPIRA                                        BA2914000
A35852662013763479000160036943IRAJUBA                                      BA2914208
A35890639613922596000129037060IRAQUARA                                     BA2914406
A35933107913715891000104037133IRECE                                        BA2914604
A36051816413701966000106037672ITAGIBA                                      BA2915205
A36094042414147920000141038067ITAJU DO COLONIA                             BA2915403
A36132267913761697000165038164ITAMARAJU                                    BA2915601
A36170447713743760000130038261ITAMBE                                       BA2915809
A36212702114210512000197038415ITANHEM                                      BA2916005
A36250663314147938000143038563ITAPE                                        BA2916203
A36293144013751102000190038725ITAPETINGA                                   BA2916401
A36331369514147482000111038903ITAPITANGA                                   BA2916609
A36373600513751276000153039209ITARANTIM                                    BA2916807
A36411819513988324000121039578ITIUBA                                       BA2917003
A36454044814106280000121039640ITUACU                                       BA2917201
A36491922813677109000100040100JACARACI                                     BA2917409
A36530157313910211000103040533JAGUAQUARA                                   BA2917607
A36572360913796289000149040690JAGUARIPE                                    BA2917805
A36610570613894878000160041645JEQUIE                                       BA2918001
A36652977513764659000166041793JIQUIRICA                                    BA2918209
A36672524314205686000161041815JITAUNA                                      BA2918308
A36691392513915632000127042544JUAZEIRO                                     BA2918407
A36710473813717277000181043150JUSSARA                                      BA2918506
A36752800614205959000178043362LAFAIETE COUTINHO                            BA2918704
A36790517713785670000102044075LAJEDAO                                      BA2918902
A36871164214694400000159044660LENCOIS                                      BA2919306
A36951509513751540000159045730MACARANI                                     BA2919702
A36990176214217343000117045918MACURURE                                     BA2919900
A37031932114212872000128046094MAIRI                                        BA2920106
A37070727814106561000184046264MALHADA DE PEDRAS                            BA2920304
A37112371913910203000167046906MARACAS                                      BA2920502
A37131496213784384000122046922MARAGOGIPE                                   BA2920601
A37173721713765219000123047210MARCIONILIO SOUZA                            BA2920809
A37211925913805528000180048178MATA DE SAO JOAO                             BA2921005
A37250301413913363000160049018MIGUEL CALMON                                BA2921203
A37292527413913371000106049514MIRANGABA                                    BA2921401
A37330624813798574000107050881MORPARA                                      BA2921609
A37373064713677687000146051144MORTUGABA                                    BA2921807
A37411396313761705000173051330MUCURI                                       BA2922003
A37453629413796461000164051543MUNIZ FERREIRA                               BA2922201
A37491838413827035000140051799MUTUIPE                                      BA2922409
A37533876613758313000155052337NILO PECANHA                                 BA2922607
A37572175913892187000127053325NOVA ITARANA                                 BA2922805
A37610381813761531000149053805NOVA VICOSA                                  BA2923001
A37690524913982590000147055840PALMAS DE MONTE ALTO                         BA2923407
A37732832913675491000112056740PARAMIRIM                                    BA2923605
A37771067414215826000182057169PARIPIRANGA                                  BA2923803
A37893882113692033000191059722PILAO ARCADO                                 BA2924405
A37932094913908710000166059951PINDOBACU                                    BA2924603
A37970306913795786000122061077PIRITIBA                                     BA2924801
A38012557313858907000138061336PLANALTO                                     BA2925006
A38050628613806237000106061743POJUCA                                       BA2925204
A38093067813752191000190063045POTIRAGUA                                    BA2925402
A38131337213717798000139063509PRESIDENTE DUTRA                             BA2925600
A38173630414218952000190064297QUEIMADAS                                    BA2925808
A38211602513909247000177065145REMANSO                                      BA2926004
A38253881414100747000126065412RIACHAO DAS NEVES                            BA2926202
A38273434414043269000160065404RIACHAO DO JACUIPE                           BA2926301
A38311216013809405000117065722RIBEIRA DO AMPARO                            BA2926509
A38353880714263859000106066451RIO DE CONTAS                                BA2926707
A38391652013783279000179066834RIO DO PIRES                                 BA2926905
A38430383214217350000119067326RODELAS                                      BA2927101
A38471947913743281000114068179SALINAS DA MARGARIDA                         BA2927309
A385000000              903850DEMAIS MUNICIPIOS                            BA0000000
A38513750913626908000157068705SANTA BARBARA                                BA2927507
A38551969913635008000176069027SANTA CRUZ CABRALIA                          BA2927705
A38613308413807870000119070807SANTALUZ                                     BA2928000
A38632408613912506000119070068SANTA MARIA DA VITORIA                       BA2928109
A38670540713627062000170071226SANTANOPOLIS                                 BA2928307
A38732416513825476000103071838SANTO ANTONIO DE JESUS                       BA2928703
A38770203913655436000160072818SAO DESIDERIO                                BA2928901
A38792863513828389000100073008SAO FELIX                                    BA2929008
A38850541414060602000149073571SAO GONCALO DOS CAMPOS                       BA2929305
A38931095913648480000143078204SATIRO DIAS                                  BA2929701
A38973837113922604000137078328SEABRA                                       BA2929909
A39011611113988308000139078700SENHOR DO BONFIM                             BA2930105
A39092051613845086000103079308SERRINHA                                     BA2930501
A39172413413655659000128080942TABOCAS DO BREJO VELHO                       BA2930907
A39211097313627997000156081442TANQUINHO                                    BA2931103
